:100000006F00507313000000130000001300000085
:100010001300000013000000130000001300000094
:100020001300000013000000130000001300000084
:08003000130000007300100032
:100038000000000000000000EE050000F2050000CE
:10004800000000007A0E0000000000000000000020
:100058007C0E00007E0E0000000000000000000082
:10006800321800000000000000020000000000003C
:10007800840E0000860E0000880E00008A0E000024
:100088008C0E00008E0E0000900E0000920E0000F4
:10009800940E0000960E0000980E00009A0E0000C4
:1000A8009C0E00009E0E0000A00E0000A20E000094
:1000B800A40E0000A60E0000A80E0000AA0E000064
:1000C800AC0E0000AE0E0000B00E0000B20E000034
:1000D800B40E0000B60E0000B80E0000BA0E000004
:1000E800BC0E0000BE0E0000C00E0000C20E0000D4
:1000F800C40E0000C60E0000C80E0000CA0E0000A4
:10010800CC0E0000CE0E0000D00E0000D20E000073
:10011800D40E0000D60E0000D80E0000DA0E000043
:10012800DC0E0000DE0E0000E00E0000E20E000013
:10013800E40E0000E60E0000E80E0000EA0E0000E3
:10014800EC0E0000EE0E0000F00E0000F20E0000B3
:10015800F40E0000F60E0000F80E0000FA0E000083
:10016800FC0E0000FE0E0000000F0000020F000051
:10017800040F0000060F0000080F00000A0F00001F
:100188000C0F00000E0F0000100F0000120F0000EF
:10019800140F0000160F0000180F00001A0F0000BF
:1001A8001C0F00001E0F0000200F0000220F00008F
:1001B800240F0000260F0000280F00002A0F00005F
:1001C8002C0F00002E0F0000300F0000320F00002F
:1001D8000000000000000000000000000000000017
:1001E8000000000000000000000000000000000007
:0801F8000000000000000000FF
:10020000130181F806C216C41AC61EC822CA26CC1B
:100210002ACE2ED032D236D43AD63ED842DA46DC76
:100220004ADECEC0D2C2D6C4DAC6DEC8E2CAE6CC46
:10023000EACEEED0F2D2F6D4FAD6FED8F3220030CF
:1002400096DA9702002083A2A2FF23A02200F325C2
:1002500010342EC09305000273A0458003A1818154
:10026000EF20202F17030020032383FD0321030029
:10027000824273901234D652739002309240A2425E
:100280003243C2435244E244724582551256A2564A
:100290003257C2575258E25872598649164AA64AEE
:1002A000364BC64B564CE64C764D865D165EA65ECA
:1002B000365FC65F13018107730020301300000012
:1002C00013000000130000001300000013000000E2
:1002D00013000000130000001300000013000000D2
:1002E00013000000130000001300000013000000C2
:1002F00013000000130000001300000013000000B2
:1003000083A28181938202E073900234170100205E
:10031000032101F3024182403243C2435244E2448A
:10032000724582551256A2563257C2575258E25859
:1003300072598649164AA64A364BC64B564CE64C6D
:10034000764D865D165EA65E365FC65FD652A1020A
:1003500073900230A24213018107828013000000D3
:100360001300000013000000130000001300000041
:100370001300000013000000130000001300000031
:100380001300000013000000130000001300000021
:100390001300000013000000130000001300000011
:1003A0001300000013000000130000001300000001
:1003B00013000000130000001300000013000000F1
:1003C00013000000130000001300000013000000E1
:1003D00013000000130000001300000013000000D1
:1003E00013000000130000001300000013000000C1
:1003F00013000000130000001300000013000000B1
:10040000F322003093F272FF130380781203B3E2F9
:100410006200711523205500130585FA10C12115BE
:10042000232005009302000063870200711523203A
:100430000500FD12D5BF71150CC1828000000000BF
:1004400000000000000000000000000000000000AC
:10045000000000000000000000000000000000009C
:10046000000000000000000000000000000000008C
:10047000000000000000000000000000000000007C
:10048000000000000000000000000000000000006C
:10049000000000000000000000000000000000005C
:1004A000000000000000000000000000000000004C
:1004B000000000000000000000000000000000003C
:1004C000000000000000000000000000000000002C
:1004D000000000000000000000000000000000001C
:1004E000000000000000397101436EC619A0397187
:1004F00041536AC866CA62CC5ECE19A039710153F5
:100500005AD056D252D44ED64AD826DA22DC06DE4B
:1005100033016140828241114AC026C222C406C60C
:100520008282B24D4101024D924C224CB24B4101AC
:10053000024B924A224AB249410102499244224462
:10054000B240410182803D432A876373C30293779F
:10055000F700BDEFADE5937606FF3D8ABA960CC372
:100560004CC30CC74CC74107E36BD7FE11E2828036
:10057000B306C3408A069702000096966780A600DD
:100580002307B700A306B7002306B700A305B700EB
:100590002305B700A304B7002304B700A303B700E3
:1005A0002303B700A302B7002302B700A301B700DB
:1005B0002301B700A300B7002300B700828093F5A2
:1005C000F50F93968500D58D93960501D58D61B76E
:1005D000939627009702000096968682E78086FA17
:1005E0009680C1171D8F3E96E374C3F8A5B77300BC
:1005F000203001A0EFF23FF24111EF10D036371456
:1006000001402AC61304048085452285EF00502846
:10061000EF1070352AC69305401F6800EF10706612
:1006200085452285EF001027EF10F0332AC6930589
:10063000401F6800EF10F064C1BFEFF2DFED411121
:100640008545114502C202C402C6EF0030588547F5
:100650007C8237150140C1473EC64C008D471305CB
:1006600005803EC4EF00D0164101C1BDEFF2BFEAE4
:1006700001118545254502C202C402C602C802CA4C
:1006800002CC02CEEF009054854537054000EF00C4
:10069000D0558567938707C07C8237150140F147A5
:1006A0003EC64C008D47130505C03EC4EF005012F6
:1006B000E1679387076A3EC8B707FFBF3ECAB7071F
:1006C00000043764004089073ECC0C08916713058D
:1006D0000480FC86EF00501C130504808545EF0064
:1006E000D02A854513050480EF00F02E0561B1B5D1
:1006F000EFF2FFDF4111EF101027376400402AC6E8
:10070000854513050480EF00102D13040480B70500
:1007100002002285EF0010317DF9B7070300B7050D
:1007200007003764004013040480138A1700938B7A
:10073000250813894508138B270093840704E14A91
:100740009305A00F6800EF10D05385452285EF0078
:100750005025D2852285EF00902B65DD014693055B
:1007600000072285EF009029DE852285EF00302AE0
:1007700065DD930510072285EF009027CA85228545
:10078000EF00F02865DD85452285EF0030238545A3
:100790002285EF001021D2852285EF00502765DDEC
:1007A0000546930500072285EF005025DA8522854E
:1007B000EF00F02565DDA6852285EF00502565DD7B
:1007C0002285EF003023AA898545228593F9B90F48
:1007D000EF00D01EE39659F74101B1B3EFF21FD2FB
:1007E00041112A89EF1030182AC637650040854527
:1007F00013050580EF00301E930520036800376461
:100800000040EF10104893040480B70502002685CD
:10081000EF0050217DF9130504808545370403005E
:10082000B7640040EF00F017050493890480A285A7
:100830004E85EF00D01D65DD1385048001469305CC
:10084000000737040700B7640040EF00301B1304B3
:10085000240893890480A2854E85EF00501B65DD36
:10086000138504809305C00A37040700B76400406D
:10087000EF0010181304440893890480A2854E8564
:10088000EF00F01865DD138504809305300337040D
:100890000700B7640040EF00B015130444089389C3
:1008A0000480A2854E85EF00901665DD13850480D7
:1008B0008145B704070037640040EF00701393844C
:1008C000440893090480A6854E85EF00501465DD29
:1008D000130504808545EF00700E9305803E680087
:1008E000EF10303A13050480854537040300B764E0
:1008F0000040EF00100B050493890480A2854E850B
:10090000EF00F01065DD13850480054693050007B0
:10091000B704030037640040EF00500E890413044D
:100920000480A6852285EF00900E65DDB7040300E4
:10093000B7690040014493840404138A09809D4AE6
:10094000A6855285EF00B00C65DD5285EF00900A58
:10095000B307890088A30504E31454FF8545138574
:100960000980EF00B0054101E1B6EFF23FB937640D
:1009700000402A8993040480B70502002685EF0011
:10098000700A7DF913050480854537040300B764B8
:100990000040EF001001050493890480A2854E8574
:1009A000EF00F00665DD1385048001469305E00441
:1009B00037040700B7640040EF0050041304240814
:1009C00093890480A2854E85EF00700465DDCA8599
:1009D0001385048037040700B7640040EF0050011E
:1009E0001304440813890480A2854A85EF0030026D
:1009F00065DD854513850480EF00407C15BEEFF270
:100A00009FB141112A84EF1000762AC689456800FB
:100A1000EF10302713654400893F89456800EF10C7
:100A200050261375B40F913789456800EF10702573
:100A3000410121B6EFF23FAEE205E185937405FF77
:100A4000CD8C93E4840093F4F40F131445002685B1
:100A50004D8C213F2685136484001374F40F4537B1
:100A6000228521372285613FC9BCEFF2DFAA81458B
:100A70000545C937D9B4EFF21FAA4111EF10A06E96
:100A80002AC681450D457D3789456800EF10701FE6
:100A900081450D45453781450D45693F81450945EE
:100AA000513F8145194579378145130580025937F2
:100AB000814531454137553F410141B4EFF2BFA572
:100AC0002A840305040011E18DBC85451375F50FDB
:100AD00005048D37FDB7EFF21FA179711139613F20
:100AE000B787000003AB071483AB4714B787000038
:100AF00003AA871483AAC714B787000003A90715A0
:100B000083A9471501448144B78C0000378C00004D
:100B1000378D0000B78D00002808C9318307810197
:100B200063CA0702834491018347A1010344B101D1
:100B3000B8869207B204DD8C93574400DD8C4204E2
:100B4000B7070F007D8C931787002183D98FC207C9
:100B5000C1835D8C2685EF20D0625A86DE86EF2029
:100B60004013EF2030732AC42285EF209061528613
:100B7000D686EF200012CE864A86EF20C06CEF208A
:100B80007071A2672AC613858C15D39517C093F58B
:100B9000F50FEF30F038B2671305CC16D39517C0B8
:100BA00093F5F50FEF30D0372245EF20F0632A8719
:100BB000AE8713060D18C1450810EF301049814566
:100BC00013050008853D0810D53D3245EF20D06162
:100BD0002A87AE8713864D19C1450810EF30F046BD
:100BE00081451305000CB9350810C93D35B7EFF242
:100BF0009F92D922716513050520EF10707D014683
:100C000091450945EF007071B707002023ACA7207C
:100C1000B13CEFF09FA2B707002083A5071F3785DF
:100C200000001305050BEF30B02F712EAA85378514
:100C300000001305050CEF30B02EB7850000378596
:100C400000009385050D1305850DEF30702DB70756
:100C50000020B7850000371500009387072115474E
:100C600081461306A00F9385850F130565ADEF1020
:100C700000243785000013050510EF30703CB707DE
:100C80000020B785000037050000938747211147F2
:100C9000814613060004938505111305455FEF1087
:100CA00000213785000013058511EF307039EF10F2
:100CB00080413784000013058412EF307038E5BF9F
:100CC000B71702409843B706FFF8411113671700A2
:100CD00098C3D84337060200758FD8C39843B70628
:100CE000F7FEFD16758F98C39843B706FCFFFD16F7
:100CF000758F98C3D843B70681FFFD16758FD8C38B
:100D00009843B70600ECFD16758F98C33707FF00B0
:100D100098C723A6070202C402C69843C166558F2E
:100D200098C3B716024005679C42F18F3EC6A247A2
:100D300085073EC4B24781E7A247E397E7FEB717AE
:100D400002409C431397E7006356070685473EC65B
:100D500032478547631EF704B7170240D843B706EA
:100D6000C1FFFD16D8C3D843D8C3D8431367074083
:100D7000D8C3D843758FD8C3D843C166558FD8C35D
:100D80009843B7060001558F98C3984393166700A0
:100D9000E3DD06FED843B7160240719BD8C3D843A3
:100DA00013672700D8C32147DC42B18BE39EE7FEDF
:100DB0004101828002C669BF371602405C42370794
:100DC00000209146B18B1307071F6385D700A1460A
:100DD0006388D702B7177A00938707201CC3B71719
:100DE0000240DC43918393F6F700B7070020938716
:100DF0000700B69794231C43B3D7D7001CC3828047
:100E000054425042C167C982BD8A7D8E93872600B5
:100E100085CABD466389D702C1466389D702C545E5
:100E200081466393B700C1470DE63746024003266B
:100E30000680418A15C637167A00130606202DA0B3
:100E40008146C947D5B78546B547F9BF8146BD47F5
:100E5000E1BF3716024050429315E600E3DD05FC82
:100E600037163D0013060690B387C7021CC3A5DAE8
:100E70001C438583A5B701A001A001A001A001A08A
:100E800001A001A001A001A001A001A001A001A05A
:100E900001A001A001A001A001A001A001A001A04A
:100EA00001A001A001A001A001A001A001A001A03A
:100EB00001A001A001A001A001A001A001A001A02A
:100EC00001A001A001A001A001A001A001A001A01A
:100ED00001A001A001A001A001A001A001A001A00A
:100EE00001A001A001A001A001A001A001A001A0FA
:100EF00001A001A001A001A001A001A001A001A0EA
:100F000001A001A001A001A001A001A001A001A0D9
:100F100001A001A001A001A001A001A001A001A0C9
:100F200001A001A001A001A001A001A001A001A0B9
:100F300001A001A0970100209381C1AB177100208F
:100F40001301410C177500001305857F97F5FF1FEE
:100F50009385450B1386018263FAC5008322050041
:100F600023A0550011059105E3EAC5FE17F5FF1F03
:100F70001305452A972500209385C5516377B50051
:100F8000232005001105E36DB5FEFD42739002BC00
:100F9000FD4273904280B78200009382028073A06A
:100FA000023097F2FFFF9382620993E2320073905E
:100FB0005230EFF0FFD097020000938282C373900B
:100FC000123473002030B7F7FF1F03A547708280EB
:100FD0009C4513F7070113F8F70001C7D8413368A0
:100FE000E8008E2113F7F50F39C318418146854E6D
:100FF0003D4F930F800293028004214E3396DE0012
:10100000B3F8C500631116039398260033131F012C
:101010001343F3FF3377E300B318180133E7E80015
:10102000639FF70550C98506E39AC6FD18C11307EB
:10103000F00F6375B70454412146854E3D4F930F21
:10104000800293028004414EB398CE0033F715011D
:101050006392E8021317260001173313EF001343BE
:10106000F3FFB376D3003317E800D98E639DF70101
:10107000232A15010506E319C6FD54C18280E394B5
:1010800057FA10C94DB7E39757FE23281501DDB76E
:101090000CC982804CC98280EFF2EFC779712A8433
:1010A000462168082EC6452A925737470F00130776
:1010B000072433D7E702C204C18093F404FCC204BE
:1010C000C180B24561651305056A131607014182A7
:1010D000D18C46A01620C206C182F99AC206C182EE
:1010E00016A094416369D5048606B3D7D70291460A
:1010F000139707014183BA876373D70091470506A9
:101100004206C2074182C18312B05EAC1E20DA21C2
:10111000B62593E717001EA01E20558FC207C18376
:1011200093F757BFD98F1EA09A25DE25D98F1EA40D
:1011300045616FF08FC0EA2131667D16631DC502DF
:101140000D46B386C602B3D7D702C207C1839396B2
:10115000470199E293E71700A166D58F9306C01265
:101160003307D7029306803E3347D702050742076D
:1011700041831AB059BF6546B386C602B3D7D702BA
:101180009166C207C183D58FD9B71E2189C593E760
:1011900017001EA18280C207C183F99BC207C183C9
:1011A000CDBF1E2189C593E707101EA18280C2070B
:1011B000C18393F7F7EFC207C183C5BF1E2189C55D
:1011C00093E707201EA18280C207C18393F7F7DF50
:1011D000C207C183C5BF1E2189C593E707401EA171
:1011E0008280C207C18393F7F7BFC207C183C5BF1F
:1011F0000EA982800A291375F50F828093F7E50FF7
:1012000019C293E71500C207C1831EA982805E2917
:101210000A2D42055D8D6D8D220521810D8D1335C1
:1012200015008280411102C402C693D7C5012AC6A7
:101230003EC4A247A205A18199CBB247D1073EC6C1
:10124000B247884341016D8D3335A0008280B2479B
:10125000C181E107EDB7371702405C439146B18B7E
:101260006385D700A1466382D706B7177A009387B4
:1012700007201CC1371602405C42370700201307C5
:1012800007019183BD8BBA9794231C41B3D7D70034
:101290005CC15442A1829D8ABA969422B3D6D700EB
:1012A00014C55442AD829D8A36971823B3D7E70000
:1012B0005CC558423983937637001387418036974F
:1012C0001823B3D7E7021CC982805C435843C16628
:1012D000C983758FB7F6FF1F83A6C670BD8B8907BC
:1012E0001396160163480600C54601466392D7026D
:1012F000C94739A88946638FD702BD46638ED70296
:10130000C146638ED702C54601466393D700C147E5
:101310001DEF3747024003270780418B05C737176A
:101320007A0013070720B307F7021CC121D61C411E
:10133000858381B701466DBF0546B547D1BF0146DC
:10134000BD47F9B737173D0013070790E9BFB71539
:101350000240D8559316F700D85563DF0604118371
:101360003D8B9306170037177A0013070720335772
:10137000D70218C1D455A182BD8A8DE295463307A4
:10138000D702058318C137170240585714413D8BC7
:10139000050733D7E60218C1184171B78545639434
:1013A000B600E546E9BFBD456396B600D146338732
:1013B000E602C9BF8906E5BF3D8B930617003717C4
:1013C0007A00130707203357D702F1B799C53717AB
:1013D00002401C4F5D8D08CF8280B7170240984FA6
:1013E0001345F5FF798D88CF828099C53717024064
:1013F0005C4F5D8D48CF8280B7170240D84F1345B0
:10140000F5FF798DC8CF8280EFF2EF901629F5773E
:10141000FD17F58FF621DA257971D58F1EA956258E
:10142000FD779387379FF58FD6212A842EC6D58FD7
:101430009625D58FB625D58F5EA55E29C207C183B7
:1014400093F7F7CFD98F5EA968083135B7470140C8
:1014500093870780B245631AF404A2575624654760
:10146000B387E702C206C186984163D20604060725
:1014700052244206B3D7E702130740064186B3D68B
:10148000E702B3F7E7029206635506028E079387D9
:101490002703B3D7E70213F77700B367D700C20774
:1014A000C1831EA445616FF04F89925745BF0A075B
:1014B000C1B7920793872703B3D7E702BD8BD58FB8
:1014C000F9BF91C55E250967D98F5EA582805A252F
:1014D000F977FD17F98FD5BF93F5F51F4EA18280DF
:1014E0000A216D8D3335A0008280B70700209387D5
:1014F00047239843636FA702D043B386C7006316A0
:10150000D50054413E85B296D4C35041B306C500C0
:10151000631CD700B706002083A6C6216306D70048
:1015200054431843B29654C118C16303F50088C3ED
:101530008280BA877DBFEFE27FFC41112AC6EF00AF
:101540009041B706002083A7C62137060020938666
:10155000C621130606223245A1EF37070020930764
:10156000472993F5F7001307472981C51387F7002B
:10157000419BB70500209385452323A2050098C110
:101580008D65C115AE97C19B23A2070023A007005C
:10159000B385E7409CC21CC3B707002023A4B72231
:1015A000B707002023A2B722B70700804CC31CC294
:1015B000032A0600B377AA0085E39307F5FF39579E
:1015C000636CF7009307050113F7F70041C313F7A6
:1015D00007FF410763EBE706814489A022872E8439
:1015E00061A058C15CC011375840B70600209386EF
:1015F00086229042B307E94023A0F90063F3C700B5
:101600009CC2B70700203367EA009387C72258C0FF
:101610009843C10423200400050798C3EF0010502D
:1016200093F7F400D1CBA1679387078073900730BD
:1016300037860000378500001306861A93050011CF
:101640001305051DEF30C00D01A0BA873707002034
:101650000329472293094722E360F9F8370700205E
:10166000032447231307472350406374F6000C40BC
:10167000B5F59442E38286F61440044314C333075D
:10168000F64093060002E3F1E6F63305F4009376A4
:10169000F500A1DAA167938707807390073037863A
:1016A0000000378500001306861A9305F00C130519
:1016B000051DEF30E00601A0268541016FE05FE7E0
:1016C00055C1EFE25FE5B7070020032745FF83A779
:1016D00007222A84B376F7009DE2A16793870780EB
:1016E0007390073037860000378500001306861A8E
:1016F000930540121305051DEF30800201A08326DB
:1017000005FF9DC2A16793870780739007303786D6
:101710000000378500001306861A93055012130542
:10172000051DEF20F07F01A093C7F7FFF98F232A53
:10173000F5FEEF005022B70700209387472294431D
:10174000032744FF130504FF369798C3793BB70777
:101750000020938707239843050798C3EF00103CA8
:101760006FE0BFDD8280B7E700E041572387E740A5
:101770002386E740B7F700E023A0070023A2070075
:10178000814694C70147D8C7370700208325071F24
:101790001307401F814633D6E5023D4790CBD4CB9B
:1017A00098C38280EFE23FD7411102C6F327503041
:1017B0003EC6B2470D478D8B6384E702A1679387CE
:1017C00007807390073037860000378500001306C6
:1017D000461F9305600B1305051DEF20707401A0D3
:1017E000B787002093870700BD8B9DC3A1679387B0
:1017F0000780739007303786000037850000130696
:10180000461F9305B00B1305051DEF20707101A055
:10181000993FB7E700E0056723A0E710116723A011
:10182000E71023A40180EFE0BFAD014541016FE067
:10183000DFD0197182FE86FC8AFA8EF892F696F451
:101840009AF29EF0A2EEA6ECAAEAAEE8B2E6B6E400
:10185000BAE2BEE042FE46FC4AFA4EF852F656F4B0
:101860005AF25EF062EE66EC6AEA6EE872E676E4E0
:101870007AE27EE073110134A16793870780739049
:101880000730B7F700E023A20700EF00700E11C584
:10189000B7E700E0116723A0E720A1679387878857
:1018A00073900730731101347670E6705671C6710B
:1018B0003672A672167386737664E6645665C665DC
:1018C0003666A666166786677278E2785279C279BC
:1018D000327AA27A127B827B726CE26C526DC26D9C
:1018E000326EA26E126F826F096173002030A167A1
:1018F000938707807390073093878180984305070B
:1019000098C38280138781801C438DE7EFE2BFC0BC
:10191000A16793870780739007303786000037856B
:1019200000001306461F930520101305051DEF2028
:10193000305F01A0FD171CC391E7A16793878788DB
:10194000739007308280930785007D575CC118C56E
:101950005CC51CC9232005008280232805008280E5
:101960009841FD5693078500631ED7001C49D84354
:10197000D8C10CC79CC5CCC31C4188C985071CC1F4
:101980008280B687D4439042E37DC7FECDB75441F1
:1019900018451C4998C654C3D4436393A600D8C3C2
:1019A0009843232805007D1798C388438280EFE27F
:1019B0009FB641112AC6253F3245005DA137133538
:1019C000140041016FE07FB7304115C2EFE2BFB4B0
:1019D00058451445AA87329758C56364D700184103
:1019E00058C52E85CC47EF20E0286FE01FB58280D8
:1019F000EFE27FB22A84E53D834454041309440294
:101A0000E204E18463459002FD57A302F404DD3D46
:101A1000F93D8344440413090401E204E18463446E
:101A20009002FD572302F404F13D6FE01FB15C50BA
:101A3000E1DF4A85EF00704719C1EF00B063FD1484
:101A4000E204E184C1B71C48E9DF4A85EF00F045B4
:101A500019C1EF003062FD14E204E184C9B7EFE27E
:101A60009FAB41111DE1A1679387078073900730F9
:101A700037860000378500001306C6219305001144
:101A80001305051DEF20D04901A05C5D2EC62A84F8
:101A9000BDC33841B3B7E702B9EF913D3040585C60
:101AA0001440232C0402B307E602B24554C0338726
:101AB000F600918FB6975CC4FD572302F40418C456
:101AC000A302F40495E11C4899CB13050401EF002F
:101AD000D03D11C5B7E700E0116723A0E7201D3511
:101AE000054541016FE07FA513050401A93D1305DC
:101AF0004402913DEDB7A16793870780739007304B
:101B000037860000378500001306C6219305501460
:101B10001305051DEF20D04001A0EFE2DF9F41112A
:101B200029C1B3B7A502AA848DEF3305B502930787
:101B300070FB63E8A702130585042EC6EFF0BF9F74
:101B40002A8401CDB245AA8799C1930785042CC088
:101B50001CC044DC854522851937228541016FE090
:101B6000DF9DA16793870780739007303786000059
:101B7000378500001306C6219305601C1305051D5B
:101B8000EF20103A01A0EFE29F96011132C61DE14D
:101B9000A1679387078073900730378600003785E9
:101BA00000001306C621930510551305051DEF20EF
:101BB000303701A02A84AE898DE53C419DC3A167E1
:101BC00093870780739007303786000037850000C1
:101BD0001306C621930550551305051DEF205034FB
:101BE00001A0EF00F04915E5B247014985C7A1679B
:101BF0009387078073900730378600003785000091
:101C00001306C6219305A0551305051DEF2050317D
:101C100001A001497D5A930A440237EB00E0916B21
:101C200095A0B24781E7F939014559A0631509002C
:101C30002808EF005036F931392B553983474404D1
:101C4000E207E187639447012302040483475404B5
:101C5000E207E18763944701A302040465316C0045
:101C60002808EF00B03421ED2285913329C5B24513
:101C70005685EF00B0172285A53B4D2519E123209D
:101C80007B210549AD31045CC9DCCE852285FD147C
:101C9000253B04DC1C4899CB13050401EF00F02020
:101CA00011C5B7E700E0116723A0E720A13905457A
:101CB00005616FE05F872285253B8D25D9B7228599
:101CC000053BA92D2285E5314DDDB9BF15E5EFE2D4
:101CD0009F84A16793870780739007303786000041
:101CE0008565378500001306C621938585AC1305ED
:101CF000051DEF20F02201A09DCD37360020930670
:101D000046298147014713064629214883A84600F2
:101D10006398A80093173700B2978CC3C8C321A853
:101D200091E783A8060063930800B6870507A1061C
:101D3000E31E07FDFDF38280EFE2EFFD41112A84EF
:101D40002EC632C4EFF0BFBA834744047D57224603
:101D5000E207E187B2456394E70023020404834766
:101D600054047D57E207E1876394E700A30204046B
:101D700032C62EC4EFF01FB91C5CA245324689E77B
:101D800013054402EF00100B22859D3141016FE0E5
:101D9000CFFA37070020130707241C439443B707E3
:101DA00000209387072681E67D5798C382801843D9
:101DB00058471843DDBFEFE26FF437090020B7073B
:101DC00000209304C92383A907272A849C408840C4
:101DD0004111A388070411052EC6EFF05FBB7D57A4
:101DE0009307C923B245631CE40295C9B7370020A5
:101DF0009387C7439440D84398C610479440D0C6B1
:101E000094401047910654C29440910614C79840DC
:101E10005CCB9843050798C341016FE06FF198438D
:101E20004E9440C3637B34013707002003254724C9
:101E30008C439105EFF0DFB2C5B7370700200325CB
:101E400007248C439105EFF0BFB1B70700209387BB
:101E500007269843E372E4FC80C37DBFEFE20FEAFC
:101E600037340020B709002013040445370A002046
:101E70009384C9249C40EDDFEFF07FA75C4403A965
:101E8000C70013054900EFF09FB013078A241C43D5
:101E9000FD171CC39C40FD179CC0EFF0BFA6032597
:101EA0000903EFF0FF814A85EFF09F81D1B7EFE2A0
:101EB0000FE4931426002A8B26852E8AB68B3A8946
:101EC000BE8AEFF04FE705CDAA8913054005EFF074
:101ED0008FE62A8415C12328350326864E8593056F
:101EE000500AEFE04FE6814783290403C146631A95
:101EF0000A00230A040225A04E85EFF06FFC7D55F1
:101F00006DA23307FA00030707003306F400230A23
:101F1000E60201C78507E396D7FEA3010404B9478B
:101F200063F42703A1679387078073900730378690
:101F3000000037850000130606239305703913054A
:101F4000051DEF20E07D01A0130A44002326240391
:101F500023222405528523240404EFF01FA0130537
:101F60008401EFF09F9FBD47F11433892741CE9440
:101F700000C8232C240140D023060404A306040433
:101F800023070404A307040423080404A308040487
:101F90005E86DA8513F504FFEFE08FC608C0638420
:101FA0000A0023A08A00EFF09F94B70700209387D0
:101FB00087249843B7040020B7390020050798C349
:101FC0001387C42318439384C4231389492D6310B2
:101FD000070E80C0984385476316F7069389492DFD
:101FE000930AC9124E85D109EFF0FF95E39C3AFFA1
:101FF00037350020930A054013050540EFF0BF94E4
:10200000373500209309454113054541EFF0BF9353
:102010003735002013058542EFF0FF923735002059
:1020200013050545EFF03F92373500201305C543F2
:10203000EFF07F91B707002023A05725B7070020B6
:1020400023A23725B7070020938747259843050724
:1020500098C337070020130787255C54144363F3A4
:10206000F6001CC35147B387E702CA97D843144709
:1020700018C454C4144723A246012324470198439B
:102080005CC8050798C3EFF0FF87B707002083A758
:10209000C726054599CB9C40D8575C546377F70019
:1020A000B7E700E0116723A0E7206FE0CFC7B707CD
:1020B000002083A7C726D9F79C40D8575C54E3E398
:1020C000E7F880C041B7EFE20FC5B7070020B7853A
:1020D0000000372500009387C72501478146130676
:1020E0000010938545241305C5E5D1330544631ECF
:1020F0008502EF00F027631A8502A16793870780A6
:1021000073900730B70700207D5723A0E726B70755
:10211000002023A6A726B707002023A80726EFF054
:102120006FE883A7C1806FE04FC1FD57E31BF5FE49
:10213000A167938707807390073037860000856515
:102140003785000013060623938505841305051DB6
:10215000EF20005D01A0B707002093870725984373
:10216000050798C38280B707002003A50727828050
:10217000B707002083A7072563990718EFE2AFB9D7
:10218000B7070020938707278043050480C321EC0D
:10219000B7070020938707249843184305C7A16712
:1021A00093870780739007303786000085653785F1
:1021B000000013060623938575AC1305051DEF205B
:1021C000205601A0370700201307472494431043EB
:1021D00090C3B707002014C3938747269843050789
:1021E00098C3EFF01FBB37060020930706269C43D9
:1021F00037370020B7050020130606261307472DA2
:102200009385C52301456375F4029C41D146DC5793
:10221000B387D7023E971843854763F3E700054528
:10222000B707002083A7472791C305456FE0EFB0AC
:10223000370E0020B70E0020514F93070E24944311
:10224000944281E6FD571CC2C9B79C43DC47DC477A
:10225000D4436374D40014C24DBF83A8870003A87D
:10226000C700D44B1383470023A40801232218017D
:1022700083A846006394680023A2060103A8060011
:1022800023AA07007D1823A00601945795CA03A826
:10229000C70183A8070283AF46002324180183A83F
:1022A000070223A208011388870163940F0123A268
:1022B000160103A8060023A407027D1823A0060127
:1022C00093868E2503A8C70283A8060063F408013D
:1022D00023A00601B306E803BA9683A8460083AF9D
:1022E000880023A4170123A6F70183AF880023A247
:1022F0006F0023A46800D4CB9C4285079CC29C41FC
:10230000DC57E36CF8F205450DBFB7070020938753
:10231000872698430145050798C38280EFE20F9E08
:1023200037040020130404251C40411185E7A167F0
:10233000938707807390073037860000856537855F
:102340000000130606239385358B1305051DEF202A
:10235000203D01A0EFF0AFD91C40FD171CC01C4070
:1023600089CB01452AC6EFF0EFD9324541016FE034
:102370002F9CB707002083A78724E5D7B736002016
:1023800037350020814793868642370F002013059A
:10239000452DD14837030020370E0020854E59A81F
:1023A000DC46DC47CC4F9053985790C503A80702F2
:1023B0002322B80003284700938587016313B800E0
:1023C00050C3104323A407027D1610C38C47D04787
:1023D000D84B1388470090C54CC24C43639305010A
:1023E00050C3104323AA07007D1610C313078F257F
:1023F000D0570C4363F3C50010C3330716032A9765
:102400004C4383AF85008CC723A6F70183AF8500BB
:1024100023A20F0123A405010C43D8CB85050CC3CF
:102420001307C323184358576366E60013074E2764
:102430002320D70198422DF799C3EFF09F95B70756
:1024400000201387872604431384872691CC3709FD
:1024500000208549313B09C59307492723A037014F
:10246000FD14EDF823200400B707002083A74727B9
:10247000E38907EEB7E700E0116723A0E7200545F1
:10248000D5B5EFE24F8941111DE1A1679387078020
:102490007390073037860000378500001306062347
:1024A0009305104F1305051DEF20802701A09DE126
:1024B000A1679387078073900730378600003785C0
:1024C0000000130606239305204F1305051DEF207A
:1024D000202501A0B707002083A707259DC3A1677A
:1024E0009387078073900730378600003785000098
:1024F000130606239305304F1305051DEF204022D8
:1025000001A02A842EC6EFF01FC51840B245B707B8
:10251000002003A50727B307B7001CC06370E502BE
:1025200063E0E7020144DD3B11E5B7E700E0116736
:1025300023A0E720228541016FE02F8063E4E700BC
:10254000E372F5FE81453385A740EFF0DF86054451
:10255000D9BFB707002003A70725B7070020938737
:10256000472701C7054798C3828023A00700B70704
:10257000002013878725184313868725B737002047
:102580009387472D5148B3060703B385D700884189
:1025900015C5C841A106BE964841C8C16314D500FF
:1025A0005441D4C1D146B306D702B697DC43D447D1
:1025B000B707002023AED72218C2828015E7EFD2DA
:1025C0009FF5A167938707807390073037860000D7
:1025D00085653785000013060623938525C01305FE
:1025E000051DEF20E01301A07D1771BFEFD2BFF2F0
:1025F00005E5A16793870780739007303786000051
:10260000856537850000130606239385C5C113052C
:10261000051DEF20E01001A0B70700202E8483A540
:10262000C723E105EFF0CFB385452285EFF0AFF882
:102630006FD0BFF0EFD23FEE2A8705E5A167938701
:102640000780739007303786000085653785000066
:1026500013060623938525C51305051DEF20400CA1
:1026600001A0B70700209387C72354432E858C43CE
:1026700003A88600D4CD8C4323A0050303A807003C
:102680008C46610823A2050103A807009C4361084A
:1026900023A4060198D71C4385071CC311C27D558E
:1026A000B285EFF04FF16FD05FE95C45DC4795E70D
:1026B000EFD27FE6A1679387078073900730378654
:1026C000000085653785000013060623938525C81D
:1026D0001305051DEF20C00401A0D04F9453985757
:1026E0009385870114C6D0C250436313B60054C308
:1026F000144323A40702FD1614C337070020032741
:102700000725D45725EF8C47D047D84B90C5D047E5
:1027100048434CC2938547006313B50050C3104330
:1027200023AA07007D1610C337070020130787254B
:1027300010436373D60014C351473386E60237371C
:1027400000201307472D32975043084690C7C8C74B
:1027500008464CC10CC6D8CB1C43014585071CC399
:10276000B707002083A7C723DC5763F8D700B70754
:102770000020054723AAE726054582803737002039
:102780001307874250430846D0CF88D308464CC130
:102790000CC698D7D1B7B707002083A747261CC11E
:1027A000B707002083A707275CC18280EFD2BFD67E
:1027B000411105E5A167938707807390073037863D
:1027C0000000856537850000130606239385D5CF65
:1027D0001305051DEF10D07401A085E5A16793874F
:1027E00007807390073037860000856537850000C5
:1027F000130606239385E5CF1305051DEF105072D0
:1028000001A02EC62AC4EFF08F8E37070020B7072D
:1028100000201307C72383A607271C432245B24580
:1028200083C7170599CB1C43A38807040544EFF021
:102830006F8D228541016FD05FD09C417D5701444F
:10284000E387E7FE37060020032646260328050017
:1028500058416307C80063E5E60023A00500F9B707
:102860003386E640E37BF6FE958FBA979CC1253709
:10287000014475BFB7070020054723AAE7268280D9
:10288000B707002083A7C726054581CBB7070020DF
:1028900003A507251335150006058280EFD2BFC7B3
:1028A00037040020EFF0AF84130444281C40B1E744
:1028B000373500201309454613054546EFF0AF882C
:1028C000373500209304854713058547EFF0AF8720
:1028D000B707002023AC27270146B7070020C145D2
:1028E000114523AE9726EFF04FA308C019C5B78551
:1028F000000093850527EFF06FBDEFF0AF806FD03C
:10290000DFC3EFD25FC14CC108C9AA876362B602B8
:10291000184D158E0545637BE60093854700B70784
:10292000002003A5C727EFF0AF8301456FD0FFC09C
:102930006375D6000545E3FBD5FE93854700B707D1
:10294000002003A58727C5B7EFD2FFBC2A84AE8439
:1029500032890C4CA6864A86A69522855D3719E1F8
:102960006FD0BFBD1C4C2285BE941C508297D5B73A
:10297000EFD27FBAB707002083A787274111AA8427
:10298000DC472EC6C04713054400EFF04F80834755
:102990004402324613F7470011CBA68522856D37D6
:1029A0001C502285829741016FD03FB9F99B2302C9
:1029B000F402FDB7EFD23FB6370400209306842718
:1029C00098421C4391EBB70700209387C727904399
:1029D00098C390C26FD07FB65C47FD558843493F8E
:1029E000F1BFEFD2DFB021694111B70A0020B7096A
:1029F0000020370B0020B70B00201309C92483A740
:102A00008A27984329CBDC47814C03AC0700EFF0C1
:102A10008FF4EFF04FF583A709282A8493840928BF
:102A2000130A4B28636CF50288C0638F0C0283A7DE
:102A3000CB2790431336160003250A00B3058C40BC
:102A4000EFF08FAFEFF09F8D11EDB7E700E011676A
:102A500023A0E72001A8854C014C55BFA13F80C0B1
:102A6000EFF0DF8B214C05A00146E36785FDEFF019
:102A7000FF8AA2856285ED3DF5B79247B245829700
:102A8000824763DD070003250A0001468A85EFF0CF
:102A90008F8F35D582472245E3C107FE22445C482B
:102AA00095E3EFF04FEC9C40AA8C6373F500193767
:102AB000824723A09401FD17E367FCFC8A07CA97AD
:102AC0009C43828713054400EFE07FECD9BF834726
:102AD00044020C4C924693E717002302F4026686E8
:102AE000B6952285393D45D18347440213F7470007
:102AF00019CB1C4C924566862285BE95B1351C507B
:102B00002285829749B7F99B2302F402CDBF834700
:102B10004402F99B2302F402BDB783474402924565
:102B200093E717002302F4020CCC9DE1A167938781
:102B30000780739007303786000037850000130642
:102B40008627930590351305051DEF10703D01A0F4
:102B5000E6866686E6952285EFF0BFDA2DB78347D5
:102B6000440213F7270055F72285EFE07FB521BF18
:102B7000EFD27F9AEFF09FD2B707002083A74728B4
:102B80009DE3A16793870780739007303786000025
:102B90003785000013068627930590111305051D40
:102BA000EF10103801A0B7070020B78500003735B7
:102BB00000009387872839478146130600109385C4
:102BC00005291305259EEFF08FAE45DD6FD0FF96EA
:102BD000EFD27F942A841165011185451105EFE03C
:102BE000EFFE930700207C82371501408D473EC4DD
:102BF0004C00E147130505803EC6EFE06FBD22C8DB
:102C000037440140B70708000C08130504803ECC88
:102C100002CA231E0100EFE02FFF85451305048043
:102C2000EFE03F8A05616FD05F91EFD23F8DB744EF
:102C30000140AE89328901449384048063452401B4
:102C40004A856FD0FF8E930500042685EFE05F89EB
:102C50007DD9B38789008385070026850504C205D1
:102C6000C181EFE07F87D9BF138701811C43B7364D
:102C70000020938606493E95636BD500B7860020F9
:102C80009386068063E5A60008C33E858280FD57D3
:102C9000EDBF397193D7450122DC4AD856D22A8933
:102CA0001394C50006DE26DA4ED652D45AD05ECE34
:102CB00013F5F77F318093DAF501630B0510930765
:102CC000F07F630BF514135AD9010E0433648A00A4
:102CD000370A8000336A4401131B3900930415C07E
:102CE0000144814B13D846011399C6001378F87F2D
:102CF000B2881359C90093D9F601630E08089307E7
:102D0000F07F6300F8041357D6010E0933692701D9
:102D1000130818C0B70780003367F900931836000E
:102D2000B38404418145BD4733C83A0163E4871A3F
:102D300097570000938787560A043E9410403E96AA
:102D400002863367C90093841480631207101364EA
:102D5000240081488945C1BF1306F07F81470147A0
:102D6000B207F25062545206B1837E08D18FB3E7A6
:102D70000701D2544259B259225A925A025BF24B7D
:102D80003A85BE852161828001481306F07FB7072E
:102D900008000147F1B73367C9004DC76308093020
:102DA0004A8532C4EF00B0652246130755FFF54748
:102DB000930685FF998F3319D900B357F60033E78F
:102DC0002701B318D60026959304353F8145A1BF4E
:102DD000336A240163030A0636C632C46306042A32
:102DE0002285EF00D0612246B246AA84130755FF20
:102DF000754A138B84FF330AEA4033146401335A53
:102E00004901336A8A00331B69011305D0C0B3043A
:102E100095400144814BF9B5336A240163180A00D7
:102E20002144014B9304F07F894B6DBD228A4A8B6C
:102E300031449304F07F8D4B75B51144014B8144AF
:102E4000854B4DB51364140081488545E9BD136475
:102E500034004A878D45C1BD630A052E8547898F99
:102E60009306800363DDF632014681470147CDBDFD
:102E7000CE868947638DF53A8D47E387F5F0854720
:102E80003688E383F5FE1385F43FE357A0FC93F700
:102E900078006396072893D638009317770063D895
:102EA0000700B70700FFFD177D8F138504409307C8
:102EB000E07FE3C3A7EA1316D70193179700B18306
:102EC0003367D6001376F57F61BDD6865287DA88E0
:102ED000DE8545B763614723630DEA20DA86FD147A
:102EE0005284014B9317870013D388013363F30097
:102EF000935E0301B357D403131F0301135F0F0144
:102F000093D50601139E88003374D4033307FF0260
:102F10004204C18D63FBE5009A951386F7FF63EECB
:102F2000652663FCE526F9179A95998D33D7D50365
:102F3000C206C182B3F5D5033306EF02C205D58DB3
:102F400063FBC5009A959306F7FF63E6652463F477
:102F5000C52479179A95C20741645D8F9307F4FFE2
:102F60003375F70093580701935F0E01B377FE00A6
:102F7000B302F502B386C540B383F80293D50201CC
:102F80003386AF021E962E963385F8036373760060
:102F90002295C168FD189355060133761601420645
:102FA000B3F81201AA95469663E6B6126382B6128A
:102FB0003306CB408D8E333BCB00338B664113857C
:102FC000F43F630C6317B358DB0393550601337B5F
:102FD000DB03B3061F03420B33EB6501637BDB00AE
:102FE0001A9B9385F8FF636D6B20637BDB20F918D8
:102FF0001A9B330BDB40B356DB0342064182337B23
:10300000DB03330FDF02420B33666601637BE601AD
:103010001A969385F6FF6367661E6375E61FF916B9
:103020001A96C208B3E8D8009395080193D2080114
:10303000C181B38EF5023306E641B385BF0293D654
:103040000E01B387F202BE95AE96B38F5F0263F4B2
:10305000F600C167BE9FC165FD1593D70601ED8ED1
:10306000C206B3FEBE00BE9FF696637FF6091A96AF
:103070009387F8FF6369661A6368F619630FF61B96
:10308000BE8893E8180011B54A85EF005037130742
:103090005501F145930405022246B246E3DAE5D430
:1030A000130485FF331A8900014B85B3328532C47E
:1030B000EF00F03413075501F146AA8722461305A5
:1030C0000502E3D6E6CEE1173317F6008148E5B9ED
:1030D000E370CBEE729B3335CB011A95AA9613059C
:1030E000F7FF6378D30263E6B6106382D5102A87B0
:1030F000C1B5E3651BDF93551B009316FA0113540A
:103100001A00CD8E7E0BF9BBE31DF6F7E38F06D6D2
:10311000B9BFE31ED3FCE378CBFD2A8751BD93F7FB
:10312000F8009146E389D7D693B7C8FF9386480045
:1031300093C717008D823E978DB381468547E34C38
:10314000A0FEFD58E31C05D0930410C085471385ED
:10315000E441B316A70033D6F8003395A800D18E0A
:103160003335A000C98E13F676003357F70001CE31
:1031700093F7F60011466388C70093874600B3B6FD
:10318000D7003697BE869317870063D80704054695
:1031900081470147F1B636877DBBB28779B3FD46DB
:1031A000E3D7F6FA0556098E930600023356C70098
:1031B0006388D7009387E443B317F700B3E8F800B8
:1031C000B3361001D18E13F67600814701CE93F706
:1031D000F60011460147E392C7FA931797001316BA
:1031E000D701B18313D73600518F014695BEE370E6
:1031F000CBF0729B3335CB011A957917AA964DBB4C
:10320000AE88C5BBAE8631BD93171E0033BEC70165
:1032100072931A96F9183E8EE315F6E7E307DEC6B9
:1032200093E818009DB1BE88E30AF6FF99BD368881
:103230001306F07F8147014725B6E367DEFCBE88B1
:10324000E310DEFE99B1370710007D1701113373CB
:10325000B70093D84601758F935ED60122CC26CA5B
:103260000E0393D445019357D5010E0706CE4AC8E5
:103270004EC693F8F87F130EF07F33E7EE0093F419
:10328000F47F13D4F50133E36700131F3500FD828B
:10329000931E36006380C81993C61600B385144187
:1032A0006305D4126351B018638B081AB707800006
:1032B0005D8F6380C4599307800363C3B734FD47B0
:1032C00063C4B748930700028D8FB3D9BE0033188B
:1032D000F700B39EFE00336838013357B700B339A7
:1032E000D001336838013303E340B3090F41B337EA
:1032F0003F013306F3409317860063D30724370951
:1033000080007D1933792601630F092C4A85EF006F
:10331000100F130785FF93070002998FB3D7F900A9
:103320003316E900D18FB399E9006344972A058FDA
:1033300013061700FD4663C4C63A13070002118F37
:10334000B3D6C9003398E9003397E700558F333877
:103350000001B369070133D6C700814493F77900B0
:1033600081CF93F6F90091476388F6009386490070
:1033700033B836014296B6899317860063D6071C88
:10338000138714009307F07F05886306F720B707BB
:1033900080FFFD17F18F1398D70193D93900A60745
:1033A00033683801B1831377F77F9396C7005207CC
:1033B000B1827E04D98EC18EF2406244D244424929
:1033C000B2494285B685056182806356B00A638A38
:1033D0000812B70780005D8F6386C42D93078003B2
:1033E00063C7B718FD4763D1B73C138805FE930741
:1033F0000002B3590701638AF50093070004B385FF
:10340000B7403317B700B3EEEE003338D00133685E
:10341000380195A2B367D7019385148099E393C6C9
:103420001600630AD404D1E19387140093F7E77F71
:103430006398071EB367E3013368D70163920416EC
:103440006381073C63150842131835009316D301B6
:103450001358380033E806019357330019A2B367B5
:10346000D7016384071A9387F5FF638A073A638B52
:10347000C523BE8589B56398051C9386140093F710
:10348000E67FC1EFB367E301639F0434638C0744B5
:10349000B367D701639307460E051318D3010D8157
:1034A0003368A800935733006DA8B385984063969E
:1034B0000420B367E301638C07309387F5FF6388CB
:1034C00007401305F07F6382A520BE859307800324
:1034D00063C1B72AFD4763C7B73C930700028D8FCE
:1034E0003318F3003356BF00B317FF003368C8002A
:1034F000B339F0003353B300336838013307674002
:10350000ADACB367D701638207109387F5FF638E75
:10351000071E638FC52DBE85D1B59307F07F638BE2
:10352000F606FA9E33B6EE01B307E300B29713989E
:10353000F70193DE1E00B369D80113D61700B684D5
:1035400093F77900E39F07E09317D60113D839006A
:103550003368F800A685935736001307F07F638021
:10356000E506B207B18313F7F57F05883DBD3367E4
:10357000D7013338E000B309E801B3B7E901338676
:10358000670093178600E3DD07FA85049307F07F51
:10359000639BF41805881307F07F8147014831B514
:1035A000639007106300083C131836009317D70187
:1035B000135838003368F800368493573700B367E0
:1035C000F800E9DB01441307F07FB7070800014862
:1035D000E9BB370680FF7D167D8E93F77900998CC5
:1035E000E39107D895B74E85192D13078501FD473F
:1035F000E3D3E7D2130685FFB397C900814935B3FA
:103600003368D70133380001CDB113183500931753
:10361000D301135838003368F8009357330035BF8F
:10362000B309DF413309E34033363F013309C94071
:103630009317890063CA072033E82901E31608CCF1
:103640008147014439BFB385984063810414B706AC
:1036500080009307F07F3363D3006381F8209307E2
:10366000800363CCB722FD4763C9B72C93070002E0
:103670008D8F3318F300B356BF00B317FF003368C4
:10368000D800B339F0003353B300336838011A97C8
:10369000B309D801B3B7D9013386E700C684D5B5DD
:1036A000E31208F2131835009317D30113583800AA
:1036B0003368F8009357330019B737058000930734
:1036C000F07F3363A300E393F8E00E061318D701ED
:1036D0000D823368C800935737003684CDB505177F
:1036E0009306000233D7E700630AD600930600046E
:1036F0003386C6403396C700B3E9C900333830017A
:10370000B369E8000146814425BDB309DF01B30771
:10371000E30033BFE9013386E70193178600854450
:10372000E3D007E28944B70780FFFD17F18F13D775
:10373000190013F81900336807019399F701B3E9E9
:10374000090113D6170019B9138805FE9307000263
:10375000B3590701638AF50093070004B385B740A6
:103760003317B700B3EEEE003338D00133683801B9
:10377000ADBE3363E30133386000B3890E41B3B7A4
:103780003E013306F740C6843684B5B6B367E3011D
:10379000638707189387F5FF638C071C9306F07FF8
:1037A000638ED50ABE8565BD930700028D8FB3D9A0
:1037B000BE003318F700B39EFE003368380133575C
:1037C000B700B339D001336838013A936DB3131899
:1037D00036009317D7011358380033E807013684B1
:1037E000935737009DBBBDCB3367D701E31C07DC84
:1037F0000E051318D3010D813368A80093573300C9
:103800007DBBE30F08E2131836009317D701135856
:1038100038003368F80036849357370099B3B309FA
:10382000DF41B307E340333F3F013386E74185443F
:10383000D9B4131835009316D3011358380033E860
:10384000060193573300A5BBB389EE4133066740A9
:1038500033B93E013309264136847DB40E06131870
:10386000D7010D823368C8009357370089BBB3096D
:10387000DF41B307E34033363F013386C740931738
:10388000860063D7070AB389EE41B3076740B3BE2A
:103890003E013386D7413684D1B43363E3013338F4
:1038A0006000FDB3138805FE93070002B3590301BE
:1038B000638AF50093070004B385B7403313B30060
:1038C000336F6F003338E001336838017DB5B38959
:1038D000EE41B3076740B3BE3E013386D74136841D
:1038E000854411BC131836009317D70113583800BC
:1038F0003368F80093573700ADB1B309DF01B30760
:10390000E30033BFE9013386E70193178600E3D96B
:1039100007C2B70780FFFD177D8E854415B10E06DF
:103920001318D7010D823368C8009357370035B19B
:1039300033E8C900E30608D021B1138805FE9307D8
:103940000002B3590301638AF50093070004B385AD
:10395000B7403313B300336F6F003338E00133687F
:1039600038013DB301441307F07FB707080035BCA9
:10397000B309DF01B307E300B3BED9013386D70132
:1039800069BB15CD411122C406C62A848D2C93062D
:10399000E041898EA94793F6F67F63DCA7025515AF
:1039A000B317A400B207B1830147B2402244B20763
:1039B000D206B183D58F3A85BE8541018280814789
:1039C0008146B207D206B1830147D58F3A85BE85BD
:1039D00082802D47098FB357E400B20713075501C2
:1039E0003317E400B183D1B7135775011377F70F7D
:1039F00041119307170022C426C21314950006C66E
:103A000093F7E70F25809354F50185C7935734004A
:103A1000130707387604B2075207B1831395F401F0
:103A2000D98FC98FB240228522449244BE8541017C
:103A3000828005EB39C42285D922A94763C6A70431
:103A40002D47098F930755013357E4003314F400D1
:103A50009317C70013079038098FB1831377F77F47
:103A60005DBF01CC13573400B7070800D98FB207E8
:103A70007604B1831307F07F79BF1307F07F814786
:103A800059BF0147814741BF130755FF3317E40072
:103A900001447DBF93D645019397C50093F6F67F09
:103AA000B183138616008E071357D5011376E67F70
:103AB000FD815D8F9318350035CE138806C89307B6
:103AC000E00F63DD07018147139597009306F00F20
:103AD000DE062581FE05558D4D8D82806355000BD8
:103AE000931765000E07B337F000D98F93D8D8012C
:103AF000B3E7170113F777006301071013F7F70017
:103B000091466303D7009107370700047D8F75C77F
:103B1000130718001306F00F9376F70FE305C7FAA3
:103B20009A07A58313959700DE062581FE05558D1E
:103B30004D8D8280B367170199EE85CF95479A071F
:103B4000A5831395970093F6F60FDE062581FE05F3
:103B5000558D4D8D8280A5DBB707400013959700EA
:103B60009306F00FDE0681452581FE05558D4D8DAE
:103B700082808147139597008146DE062581FE05E8
:103B8000558D4D8D8280A5576348F804F947370657
:103B90008000B38707417D45598E6351F5047957FD
:103BA00033070741130500023357E6006388A70077
:103BB000938626CAB316D600B3E8D800B3371001EF
:103BC000D98F13F77700014815FB139757008546E7
:103BD000E34807F48146A5B781468DB7938626C88A
:103BE0003397D8003337E000B316D600B3D8F800C7
:103BF000B367D700B3E7F800E9B7C28689B7C167F2
:103C0000637EF5029307F00F1307000263ECA70031
:103C1000974700009387876CAA9703C50700330571
:103C2000A74082802181974700009387276BAA973E
:103C300003C5070061473305A7408280B70700012D
:103C4000636EF50061819747000093872769AA9703
:103C500003C5070021473305A7408280418197476C
:103C600000009387A767AA9703C50700414733055C
:103C7000A7408280B3C7A5008D8B3307C50081E7BD
:103C80008D4763EEC700AA876370E50A83C6050007
:103C900085078505A38FD7FEE3EAE7FE828093764A
:103CA0003500AA8791CA83C6050085078505A38FBD
:103CB000D7FE93F63700FDB79376C7FF138606FE4F
:103CC00063F0C70683A3050083A2450083AF850088
:103CD00003AFC50083AE050103AE450103A3850113
:103CE00083A8C5019385450223A0770003A8C5FFDB
:103CF00023A2570023A4F70123A6E70123A8D70195
:103D000023AAC70123AC670023AE1701938747029C
:103D100023AE07FF75B790419107910523AEC7FE0B
:103D2000E3EBD7FEE3E4E7F68280797122D44AD050
:103D300052CC56CA5AC806D626D24ECE3A8AAE8A37
:103D400032843689428B014763580600370700806A
:103D50003344C7001307D0022380E70093F4F8FD33
:103D6000930760048D466388F400930750048946E6
:103D70006393F4000509DA879308C10013088100F2
:103D80004A87D6852286EF00906593077004AA893A
:103D90006396F400137A1A00630A0A049307600416
:103DA000338A29016397F40203C7090093070003CC
:103DB000631EF700014681465685A285EF30900EBE
:103DC00011C585473389274123202B0183270B0009
:103DD0003E9A014681465685A285EF30B00C11E12E
:103DE00052C613070003B24763E24703B247425784
:103DF000B2502254B38737411CC34E8592540259A6
:103E0000F249624AD24A424B45618280938617004A
:103E100036C62380E700C1BF2300C5001307250075
:103E20009307B00263D60500B305B0409307D002F4
:103E3000A300F500A54763DAB70441119307F10029
:103E4000BE88294813033006B3E605031386F7FF3F
:103E500093860603A38FD7FEB3C60503634DB30055
:103E600093860603F917A30FD6FE63E917013305FE
:103E7000A74041018280B287B685F9B7850783C61E
:103E8000F7FF0507A30FD7FECDB79307000313076E
:103E90004500938505032301F500A301B500330513
:103EA000A740828019713ACE86DEA2DCA6DA2E8483
:103EB000CAD8CED6D2D4B689DAD0DECEE2CC328918
:103EC000D6D2E6CAEAC8EEC6AA84EF10B050832B59
:103ED00005005E85EF00701E032B0400724702DCB4
:103EE00093760B102A8C034A84011C43F1CA9386F3
:103EF000470014C39C43081098433AD0D8433AD2A1
:103F000098473AD4DC473ED6EF30907328C46CC44F
:103F1000832CC404174700001307474C832A8404EA
:103F2000032D0700832D470093971C0085836A8625
:103F3000EE865685BE853ECEEF30305F41EDF247CE
:103F40006A86EE865685BE85EF3050076354A0081A
:103F5000014681465685E685EF30500663560500DA
:103F60009307D002A301F40493077004974A00005A
:103F7000938A4A4763F64701974A0000938ACA46E4
:103F8000137BBBFF8D47232064011CC8014B4E8768
:103F9000CA867018A2852685C12EFD5C631E951504
:103FA0007D55F6506654D6544659B659265A965AF7
:103FB000065BF64B664CD64C464DB64D0961828089
:103FC0009D07E19B9386870014C39843DC4338C464
:103FD0007CC43DBF5686E6865685E685EF30F054B4
:103FE00011CD93077004974A0000938A2A40E3F9A1
:103FF00047F9974A0000938AAA3F59B75C407D571A
:10400000137DFA0D6395E70899475CC05440136728
:104010000B403C18D6853EC018C09307310302C23E
:10402000D2881308410366862685EFF01FD09307D8
:104030007004AA8AD255631BFD00F55763C5F500CD
:104040005C4063D8B708791A137AFA0F93075006C1
:1040500063E64705FD155286130504052EDAEFF0D9
:10406000BFDB625785462A8BB307A7001CC863C510
:10407000E6001840058B19C385071CC88347310328
:10408000E38707F09307D002A301F40409B71307ED
:104090007004E31DEDF6BDFB854785BF9307600601
:1040A000631BFA025C40635BB0000CC881E71840F8
:1040B000058B09CF8507AE971CC809A889E718406A
:1040C0008546058B19C39386270014C82CCC014B59
:1040D00075B7130A7006E25763C9F5001C400CC897
:1040E000858BEDD793871500C1BF05476344B000AA
:1040F00009470D8FBA97C9B71C4013F7074015E35E
:1041000014485686CA8526858299E30B95E91C409A
:10411000898B63960724F2574844E354F5E83E85BB
:1041200049B513075006637B471928446C44014680
:104130008146EF30205739E98546174600001306BF
:10414000662BCA8526858299E30C95E55257E2577E
:104150006345F7001C40858BDDDBE2865E86CA8501
:1041600026858299FD57E30DF5E2014A930AA401E1
:104170007D5BE257FD17E35CFAF885465686CA85F3
:1041800026858299E30E65E1050AE5B7D2576346B5
:10419000F0068546174600001306C625CA85268503
:1041A0008299E30F95DFD2576257D98F81E71C4080
:1041B000858BB1DFE2865E86CA8526858299FD57AA
:1041C000E300F5DE014A130BA401FD5BD257B307F0
:1041D000F040634BFA00E2565686CA8526858299DE
:1041E000FD57E316F5F26DBB85465A86CA852685CE
:1041F0008299E30775DB050AD1BF3C4C625A63D351
:1042000047013E8A635A4001D2865686CA85268572
:104210008299FD57E306F5D8814C130DA401FD5D8D
:1042200009A885466A86CA8526858299E30AB5D794
:10423000850C032B8405D28763530A008147B3079B
:10424000FB40E3C0FCFE5257E257634DF7021C40AF
:10425000858B8DEBE2575257338AE7406344EB007E
:10426000338A6741635B4001D28633866A01CA851F
:1042700026858299FD57E305F5D2814A130BA401E7
:10428000FD5B15A0E2865E86CA8526858299FD576C
:10429000E312F5FC31B385465A86CA852685829994
:1042A000E30075D1850A5257E257998F52876353BD
:1042B0000A000147998FE3C0FAFE91BDE256054717
:1042C0006344D700858BB5C785465686CA85268543
:1042D00082997D5AE30645CDE2865E86CA852685AB
:1042E0008299E30F45CB28446C4401468146EF3068
:1042F000603B1DC9E25613861A00CA85FD16268545
:104300008299E30F45C9DA8613060405F9B5854697
:104310005686CA8526858299E30475C9050AE2573F
:10432000FD17E346FAFEC5B7014A930AA401FD5BF7
:10433000FDB785465686CA8526858299E31595FD83
:1043400085B185465686CA8526858299E30A65C564
:10435000050A5C447257998FE345FAFE6DBB014A2A
:10436000930A94017D5BF5B7797156CA9C49BA8A64
:10437000984522D426D24ECE52CC06D64AD05AC820
:104380005EC6AA892E84B284368A63D3E700BA87D0
:104390009CC00347340419C385079CC01C4093F795
:1043A000070281C79C4089079CC003290400137938
:1043B0006900631A0900130B9401FD5B5C4498408B
:1043C000998F634CF9041C408346340493F7070229
:1043D000B336D000A5EB13063404D2854E85829AFD
:1043E000FD576303F5041C4011469840998B5444D3
:1043F00081446397C700B384E64063D304008144DB
:104400001C4418486354F700998FBE94014969040D
:104410007D5B63982405014509A885465A86D285A7
:104420004E85829A631E75017D55B2502254925476
:104430000259F249624AD24A424BB24B45618280EC
:104440000509ADBF3307D40013060003A301C70459
:104450000347540493871600A2978906A381E704B3
:104460009DBF85462286D2854E85829AE30E65FBE6
:10447000050945B7797122D426D24AD04ECE06D648
:1044800052CC56CA5AC8B68983C68501930790068E
:104490003289AA842E8413863504638DF60263E282
:1044A000D706930780056389F61863EDD70063820A
:1044B000062293073004638FF60A930A240423012B
:1044C000D404D1A0930730066386F60A930740060A
:1044D000E395F6FE1C40084393F607089305450054
:1044E000CDC61C410CC363D807001307D002B30725
:1044F000F040A301E404974600009386E6EF2947C5
:1045000075A8930700076385F61663E5D70293073E
:10451000E006638CF6189307F006E390F6FA0C4079
:104520001C4313F80508138547006308080608C3F1
:104530009C4395A893075007E383F6FE93078007F3
:10454000638CF61293073007E399F6F61C43D041CB
:1045500081459386470014C383AA07005685EF1050
:10456000607901C53305554148C05C401CC8A301B2
:10457000040471A81C43930A2404938647009C43B7
:1045800014C32301F4048547D5B793F607041C41EF
:104590000CC3B1DAC207C187B9B793F5050408C3E4
:1045A000C1D983D707001307F0066388E60E974644
:1045B0000000938666E42947A30104044C400CC420
:1045C00063C5050008406D9908C099E3B28A91CD92
:1045D000B28AB3F5E702FD1AB69583C505002380BC
:1045E000BA00B3D5E70263F0E70CA147631EF700FA
:1045F0001C40858B91CB58401C4863C7E70093074C
:104600000003A38FFAFEFD1A3306564110C84E87E9
:10461000CA867000A2852685EFF01FD57D5A631EDD
:10462000450B7D55B250225492540259F249624AC8
:10463000D24A424B45618280A382D504974600004E
:10464000938686DB0C40084313F805081C411105CE
:10465000630D080208C313F7150001C793E50502AF
:104660000CC04147B1FB0C4093F5F5FD0CC0A9B758
:104670009C4193E707029CC193078007A302F404BF
:1046800097460000938686D875BF13F8050408C3C3
:10469000E30308FCC207C1837DBF974600009386F1
:1046A000A6D5214711BFAE872DB794411C43CC49F5
:1046B00013F80608138547006306080008C39C43E7
:1046C0008CC301A808C393F606049C43F5DA239033
:1046D000B70023280400B28A1DBF14485686CA8535
:1046E00026858299E30F45F31C40898B8DE7B247FD
:1046F0004844E359F5F23E8535B785465686CA8566
:1047000026858299E30F65F1050A5C443247998F4B
:10471000E345FAFEE9BF014A930A94017D5BF5B7D0
:1047200039713EDA2ED232D436D63AD842DC46DE61
:104730009387418122CC804326CA06CEAA8411C425
:104740001C4C81E72285EF1060310C445410268602
:10475000228536C6EF206024F2406244D2442161B3
:104760008280011126CA4AC806CE22CC4EC652C447
:10477000AA842E8909C51C4D99E3EF10202E9C4C6C
:10478000804481E72685EF10602D974700009387CE
:10479000E7D0631CF402C0408357C400A18BB1C7AB
:1047A0001C48A1C7FD59294A1C4483450900FD172F
:1047B000B1E91CC463DE07062286A9452685392295
:1047C000FD576308F502294535A0974700009387F8
:1047D000E7CE6314F4008044C1B797470000938785
:1047E000E7C9E31BF4FAC04445BFA28526855522DC
:1047F00055D97D55F2406244D2444249B249224AD9
:10480000056182801CC4050963D70700184C63CB7F
:10481000E700638945011C401387170018C02380F7
:10482000B70059B7228626855520E31F35F7D1B743
:104830001C401387170018C029472380E70061B781
:1048400093874181AA85884329BF35713ECBA6DA7B
:1048500036C73AC942CD46CF9387418186DEA2DC76
:10486000844363DB05009307B0089CC07D55F65078
:104870006654D6540D61828093078020231AF1007C
:104880002AC42ACC814799C19387F5FF3EC83ECE02
:104890007401FD572E8426852C00231BF10036C29F
:1048A000EF10F060FD576355F5009307B0089CC00A
:1048B0005DDCA247238007005DBFAA87850703C789
:1048C000F7FF6DFF3385A7407D158280011122CC53
:1048D00026CA4AC806CE4EC6AA842E89328409C585
:1048E0001C4D99E3EF10801797470000938707BB93
:1048F000631BF406C0401C4C1CC48357C400A18B2E
:10490000D9C31C48C9C31C4808409379F90F1379CF
:10491000F90F1D8D5C486347F500A2852685EF10D1
:10492000C00135E51C440505FD171CC41C40138758
:10493000170018C0238037015C486389A70083579C
:10494000C400858B89CBA9476317F900A28526850A
:10495000EF00B07E0DEDF24062444A85D2444249F8
:10496000B2490561828097470000938727B5631499
:10497000F400804449B797470000938727B0E31CB1
:10498000F4F6C0448DBFA285268521202DDD7D59FA
:10499000D9B741119387418126C2844322C44AC0BA
:1049A00006C62A892E8491C49C4C81E72685EF1087
:1049B000E00A97470000938767AE631CF402C0408B
:1049C0000317C40093170701C18393F68700BDEE58
:1049D00093F607019DEEA5472320F900136707040E
:1049E0002316E4007D55B24022449244024941011D
:1049F000828097470000938767AC6314F40080447B
:104A0000C1B797470000938767A7E31BF4FAC04438
:104A100045BF918B95C74C5891C993074404638552
:104A2000F5004A85EF109020232A04028357C40022
:104A30002322040093F7B7FD2316F4001C481CC082
:104A40008357C40093E787002316F4001C4889EFBE
:104A50008357C4001307002093F707286386E700F5
:104A6000A2854A85EF10201E8357C40013F7170054
:104A700005C75C4823240400B307F0401CCC1C4845
:104A80000145B5F38317C40013F7070829DF93E73F
:104A900007042316F400B9B7898B014791E35848FE
:104AA00018C4F1BF011122CC1C49804906CE26CA88
:104AB0004AC84EC652C456C263C187127D14131829
:104AC000240093894501338A0901130945014A9855
:104AD00083270A00032708008507B354F70263669B
:104AE000F706C1684E834A8E814E014FFD181103AF
:104AF0000326C3FF110E3377160141823307970255
:104B000033069602769793560701B3771701B307DA
:104B1000FF4036968326CEFF935E0601337616015C
:104B200033F71601BA97C18213D70741918EBA960F
:104B300013DF0641B3F71701C206D58F232EFEFE01
:104B4000E3776AFA83270800BDCBAA8AEF10206CAE
:104B50006349050441668504CA8501457D169109AE
:104B600003A8C9FF98419105B376C800158DB376A7
:104B7000C700AA96935707011358080113D7064197
:104B8000B3870741BA9713D50741F18EC207D58F76
:104B900023AEF5FEE3753AFD93172400CA979843B8
:104BA0001DC72685F2406244D2444249B249224A96
:104BB000924A056182808327080089E77D14711875
:104BC000E36B09FF00C951B7984309E77D14F1175A
:104BD000E36CF9FE23A88A00E9B70145E1B77571D6
:104BE0003ED85C5122C526C34AC1CEDED2DCE2D417
:104BF00006C7D6DADAD8DED6E6D2EAD0EECE36C2AC
:104C00003AC646CAAA842E843289C2892E8A328C38
:104C100089EF4145EF10400DC8D023220500232421
:104C200005002320050023260500DC508C4389CD98
:104C3000D84385472685B397E7009CC5D8C1EF10B8
:104C40008015DC5023A00700635309048547131C1B
:104C5000190023A0F900135C1C00B707F07F33771D
:104C6000FC006314F70642578967320C9387F7708C
:104C7000135CCC001CC3336C8C00E3050C32D247B0
:104C800091EB973700009387277F3EC039A823A078
:104C90000900E1B7973700009387077E3EC097373A
:104CA00000009387977D52471CC3BA402A440245AF
:104CB0009A440A49F659665AD65A465BB65B265C50
:104CC000965C065DF64D49618280014681462285EB
:104CD000E28522CE62D4EF20F01C05E142578547E1
:104CE0001CC3973700009387E7703EC0D247D5DFDB
:104CF00097370000938717707DB7B800F40062867D
:104D0000A285268513594C01EF10A0621379F97F13
:104D1000AA89A64A630D0910A2577245130919C042
:104D20009395C700B181B707F03FDD8D02DC97375F
:104D300000009387276F9043D443EFE0CFD097379D
:104D400000009387A76E9043D443EF2090329737AB
:104D500000009387276E9043D443EF20A0212A8B35
:104D60004A85AE8BEF30A006973700009387076D1A
:104D70009043D443EF20F02F2A86AE865A85DE85F5
:104D8000EF20401F2A8BAE8BEF20F07D2A84014656
:104D900081465A85DE85EF207022635B05002285FF
:104DA000EF30E0025A86DE86EF20D00F11C17D146D
:104DB0000547D9473AD663E387021317340097377C
:104DC000000093872774BA979043D4437245A25545
:104DD000EF20D01E635305007D1402D633892A418B
:104DE000930BF9FF014B63D60B00054B330B2B41A3
:104DF000814B634E0406A29B22CC814A1247A547F1
:104E000063E5E7149547854C63D6E7009307C7FF32
:104E10003EC2814C12478D47630EF71063CFE70403
:104E2000894702C8630DF70685473EC88DA03649FD
:104E30009307000256991307294363D5E702130528
:104E40000004198D930729413315AC003354F40045
:104E5000418DEFE01FB3B70710FEBE9585477D1962
:104E60003EDCF1B53385E7403315A400DDB7330BE5
:104E70008B40B30A804002CC51B712479147630E72
:104E8000F70005473AC8124795476306F70AFD57EA
:104E90003EC4FD5DC94702C619A885473EC8B24752
:104EA0006348F00A854705473EC4854D3AC603A9C5
:104EB0004402114723220900930647018325490034
:104EC00063FCD7082685EF009064DC502320A900FE
:104ED0009C433EC0B94763E6B71D63840C1C635E08
:104EE000800A9377F40013973700935C4440973718
:104EF000000093872761BA9793F60C0198430949FC
:104F0000DC4385C6973600009386465D9052724515
:104F1000D452A2553AD03ED2EFD0BFD702579257C3
:104F200093FCFC002A8A2E8C0D49173D0000130DBE
:104F3000ED5A89A802C8B247A2973EC4938D1700C4
:104F4000EE87E346B0F785479DB7854C02C2E9BDC1
:104F5000B2473EC4BE8DA1BF85052322B900060716
:104F6000A1BF93F61C0081CE03260D0083264D00C1
:104F70003A85BE85EF20F00F05092A87AE8793DCBE
:104F80001C40210DE39F0CFC3A86BE865285E285CB
:104F9000EFD03FD02A8A2E8C81A0094915CCB30CC2
:104FA000804093F7FC0013973700973700009387F2
:104FB0006755BA979043D4437245A25593DC4C4051
:104FC000173D0000130D8D51EF20B00A2A8A2E8C58
:104FD0008147639C0C12DDFFB257638707141737B4
:104FE000000013072746104354435285E28552D0F0
:104FF000EF20C07C635A0512638B0D12A2476350E9
:10500000F00A1737000013076744825710435443D0
:105010003E85E285EF20F005A247130DF4FF2A8AB2
:105020002E8C050962874A853EDE52DABA8C3AD068
:10503000EF20F059525802573709C0FC4286BA8611
:10504000EF203003973600009386C6409042D4424A
:10505000528CEF103072F2572A8A2E99E1EF97376F
:1050600000009387A73F525802579043D44342858C
:10507000BA85EFE04F9D5286CA862A8CAE8CEF200F
:105080000069634AA054B7070080B3C7270152865E
:10509000BE866285E685EF206072634B0552724AD8
:1050A000225CB64763C7073039476344873013171C
:1050B0003400973700009387E744BA9703AB0700A3
:1050C00083AB4700B24763D207206340B0216391AE
:1050D0000D5097370000938767389043D4435A8523
:1050E000DE85EF2000795286E286EF204062814A19
:1050F00001496357054A824702470504138A17008E
:10510000930710032300F70045A113F71C0009CBF8
:1051100003260D0083264D000509EF208075854785
:1051200093DC1C40210D75B5228DEE87E5BD228DE7
:105130008147CDBD9386F7FF139636009736000062
:105140009386463CB2968842CC428246B6973EDA77
:10515000C247E9C3973700009387C7302A86AE86D7
:105160008843CC434ADE52D0EFD0BFB202587257C8
:10517000173900001309892D4286BA86EFE0AF8CFB
:10518000024A2AD02ED2E6856285EF20D03D2ADE63
:10519000EF20F0432A86AE866285E685EFE0AF8A8F
:1051A000F2572A8CAE8C2A86AE8602559255050A95
:1051B00093870703A30FFAFEEF2060556348A00E04
:1051C00097370000938707288843CC436286E6869A
:1051D000EFE06F872A86AE8602559255EF20205366
:1051E0006342A018D257E30CFAEA0326090083268B
:1051F000490002559255EF20C06703260900832617
:1052000049002AD02ED26285E685EF2080662A8C5E
:10521000AE8C95BF5286CA86EF20A065525A0249CD
:105220002AD02ED2E6856285EF20F0332ADEEF20E9
:10523000103A2A86AE866285E685EFE0CF80725707
:10524000D257050913070703A30FE9FE2A8CAE8C7A
:105250006312F906173900001309C9200326090053
:105260008326490002559255EF10D0502A86AE860B
:105270006285E685EF20A0496346A00E025692564D
:105280000325090083254900EFD0FFFB2A86AE865F
:105290006285E685EF20805293070003E35105E025
:1052A0000347FAFF9306FAFF6304F7006A8459A8DC
:1052B000368AFDB797370000938747199043D44348
:1052C000EF20205B2A8CAE8CB1BFE287BE8C824778
:1052D000528C973A0000938A6A1713891700BE9D73
:1052E0005A86DE866285E685EFD0BF9AEF20B0272A
:1052F0002A8DEF20D02D5A86DE86EF2080572A8611
:10530000AE866285E685EFD01FF493070D03A30FE9
:10531000F9FE2A86AE864A8A639E2D07EF109045D5
:105320005A86DE862A8CAE8CEF20603E634BA0024C
:105330005A86DE866285E685EF20C03601E59377E2
:105340001D0085E3CE852685EF00F024C25723009B
:105350000A00050480C3D247E389079423A04701CC
:10536000A9B2228D130790038346FAFF9307FAFF31
:10537000639AE6008246639DF60013070003050D5D
:105380002380E60003C7070005072380E70039BF35
:105390003E8AD9BF03A60A0083A64A000509EF206A
:1053A000404D014681462A8CAE8CEF20A02F0DF98E
:1053B00051BF424763000710924605476345D70C2B
:1053C00062579387374309E7264793076003998F0E
:1053D000568DDA8C854526853E9BBE9BEF0070344A
:1053E0002A89635E9001635C7001E68763D39B0149
:1053F000DE87330BFB40B38CFC40B38BFB406380F8
:105400000A04C247C5CF6354A003CA856A862685AD
:10541000EF0030474E86AA852A892685EF00303274
:105420002ACECE852685EF001017F247BE89338637
:10543000AA4111C6CE852685EF00B044AA898545CC
:105440002685EF00102EE247AA8A635BF0063E86AF
:10545000AA852685EF00F04212478547AA8A014DAA
:1054600063C8E706014D63120A069317CC00528DFC
:10547000A9EFB705F07F337CBC0063080C04050B73
:10548000850B054D99A0138DFDFF63CAAA01338DCD
:10549000AA4163DE0D00B30CBB41814725BFE24743
:1054A000B30A5D41D6973ECCEA8A014DDDB7DA8C6E
:1054B000EE870DB7568DDA8C014925B756869DBF0C
:1054C00012478547014DE3DFE7F8E247054589CFFD
:1054D00083A70A018D078A07D697C843EF00701982
:1054E000930700023385A7405E957D8951C19307DC
:1054F0000002898F1147635AF706F1473385A740A9
:105500002A9BAA9CAA9B63586001CE855A86268551
:10551000EF001043AA8963587001D6855E86268500
:10552000EF001042AA8AB257B1C7D6854E85EF0068
:10553000104E63510504CE85814629462685EF002D
:10554000D009C2477D14AA89638C0726CA85814683
:1055500029462685EF007008A2472A896345F0088E
:105560001247894763D1E70829A8E38EE7F83E850B
:10557000710579B76345B0071247894763D1E706DC
:105580006EC4A24791EFD685814615462685EF0069
:10559000D004AA8AAA854E85EF007047E34DA0B4D7
:1055A000B247024A13C4F7FF014BD6852685EF00A8
:1055B000807EE30909D863080B0063062B01DA85B6
:1055C0002685EF00407DCA852685EF00C07C9DBB07
:1055D000814A0149F1B76A84814A014929BEC2471B
:1055E0006EC46386071E63589001CA856686268549
:1055F000EF0010352A894A8563060D02832549008C
:105600002685EF00C070032609012A8B9305C90087
:1056100009060A063105EFE0EFE50546DA8526853D
:10562000EF001032824722474A8B138C1700BA973B
:105630003EC693771A002A893EC4D6854E85EFF080
:105640006FC6DA852A8D930D05034E85EF00303C39
:105650004A86AA8BD6852685EF00903E5045930C4E
:10566000FCFF2A8A054711E6AA854E85EF00303AED
:105670002A87D28526853AC8EF00E07192474247D3
:10568000628AB3E6E700A247DD8E81EE130790033E
:105690006388ED0463547001930D1D032380BC01E6
:1056A00029B763CA0B009247B3EB7701A247B3EB6C
:1056B000FB0063950B04E353E0FECE85054626858B
:1056C000EF001028D685AA89EF0070346346A00049
:1056D00071F513F71D0079D313079003E39EEDFADC
:1056E000930790032380FC00930690038347FAFFFF
:1056F0001307FAFF638CD708850745A0635BE000BA
:1057000013079003E38EEDFC93871D002380FC00BC
:1057100069BDB247A30FBCFF63818705CE85814673
:1057200029462685EF00606BAA8981462946DA85DD
:10573000268563182B01EF00406A2A8B2A89050C05
:10574000EDBDEF008069CA852A8B814629462685F2
:10575000EF00A0682A89E5B7014BCE85054626856E
:10576000EF00101ED685AA89EF00702AE34EA0F63E
:1057700001E593F71D00ADFB930700030347FAFF14
:105780009306FAFFE313F7E2368ACDBF82476399A7
:10579000E70002470504930710032300F70031B523
:1057A0003A8AA9B7524797370000938727CC3EC063
:1057B00097370000938707CC631707CE6FF0EFCEC3
:1057C000A2476346F00012478947E3CCE7DA024A72
:1057D000D6854E85EFF00FAD8247050A930D050380
:1057E0003307FA40A247A30FBAFFE357F7F6CE8577
:1057F000814629462685D523AA89D9BF83D7C500E6
:10580000011122CC26CA06CE4AC84EC613F787001D
:10581000AA842E8479EFD841634DE000B841634AF1
:10582000E0000145F2406244D2444249B249056178
:10583000828058547DD703A904009396370123A092
:10584000040063DE060670488357C400918B99C735
:105850005C401D8E5C5899C33C401D8E5C540C50BE
:10586000814626858297FD570357C400631DF500C6
:105870009440F54763E9D706B70740208507B3D7BB
:10588000D700858BADC31C48232204001CC093178E
:10589000370163D80700FD576314F5009C4091E37E
:1058A00068C84C5823A02401ADDD930744046385E8
:1058B000F5002685EF009037232A04029DB70C508F
:1058C0000146854626850297FD572A86E31EF5F692
:1058D0009C40BDDB75476385E70059476394E70447
:1058E00023A024013DBF136707042316E4007D5560
:1058F00015BF83A90501E38609F203A905008D8B75
:1059000023A0350133093941014791E3D84918C42F
:10591000E35920F11C540C50CA864E862685829786
:105920006349A0008357C40093E707042316F400DB
:105930007DBFAA993309A940E1BF9C49A5C30111C4
:1059400022CC06CE2A8411C51C4D81E72EC63922F1
:10595000B24597370000938767B4639CF5004C40CD
:105960008397C5009DC722856244F24005616FF0B0
:10597000FFE897370000938767B46394F5000C4401
:10598000C5B797370000938767AFE39BF5FC4C449E
:10599000C1BFF240624401450561828001458280B9
:1059A000411122C406C62A842316B5002317C50058
:1059B00023200500232205002324050023220506B9
:1059C00023280500232A0500232C050021468145B4
:1059D0001305C505EFA03FB7971700009387472928
:1059E0005CD0971700009387A72B1CD49717000053
:1059F0009387E72F5CD4971700009387A73200D0D6
:105A00001CD8B24022444101828097050000938552
:105A100005F399AA411126C2130680069384F5FF67
:105A2000B384C4024AC02E8922C406C693854407A3
:105A3000EF00D02A2A8401CD23200500232225014E
:105A4000310508C4138684068145EFA0DFAF2285A7
:105A5000B240224492440249410182801C4DA5E794
:105A6000411106C622C497070000938747FA1CD548
:105A70009387C1819C4323240504232605042328FE
:105A800005046314F50085471CCD2A84352848C0D9
:105A900022851D2808C42285052848C4484001469F
:105AA0009145EFF0FFEF08440546A545EFF05FEFA5
:105AB00048440946C945EFF0BFEE85471CCCB240CB
:105AC000224441018280828041119387C18126C294
:105AD00084434AC006C69C4C22C42A8981E7268595
